{
  "contractName": "AccessControl",
  "abi": [
    {
      "anonymous": false,
      "inputs": [
        {
          "indexed": true,
          "internalType": "uint256",
          "name": "requestId",
          "type": "uint256"
        },
        {
          "indexed": true,
          "internalType": "address",
          "name": "doctor",
          "type": "address"
        },
        {
          "indexed": true,
          "internalType": "address",
          "name": "patient",
          "type": "address"
        }
      ],
      "name": "AccessDenied",
      "type": "event"
    },
    {
      "anonymous": false,
      "inputs": [
        {
          "indexed": true,
          "internalType": "address",
          "name": "doctor",
          "type": "address"
        },
        {
          "indexed": true,
          "internalType": "address",
          "name": "patient",
          "type": "address"
        }
      ],
      "name": "AccessExpired",
      "type": "event"
    },
    {
      "anonymous": false,
      "inputs": [
        {
          "indexed": true,
          "internalType": "uint256",
          "name": "requestId",
          "type": "uint256"
        },
        {
          "indexed": true,
          "internalType": "address",
          "name": "doctor",
          "type": "address"
        },
        {
          "indexed": true,
          "internalType": "address",
          "name": "patient",
          "type": "address"
        }
      ],
      "name": "AccessGranted",
      "type": "event"
    },
    {
      "anonymous": false,
      "inputs": [
        {
          "indexed": true,
          "internalType": "uint256",
          "name": "requestId",
          "type": "uint256"
        },
        {
          "indexed": true,
          "internalType": "address",
          "name": "doctor",
          "type": "address"
        },
        {
          "indexed": true,
          "internalType": "address",
          "name": "patient",
          "type": "address"
        }
      ],
      "name": "AccessRequested",
      "type": "event"
    },
    {
      "inputs": [
        {
          "internalType": "address",
          "name": "",
          "type": "address"
        }
      ],
      "name": "accessExpiration",
      "outputs": [
        {
          "internalType": "uint256",
          "name": "",
          "type": "uint256"
        }
      ],
      "stateMutability": "view",
      "type": "function",
      "constant": true
    },
    {
      "inputs": [
        {
          "internalType": "address",
          "name": "",
          "type": "address"
        },
        {
          "internalType": "address",
          "name": "",
          "type": "address"
        }
      ],
      "name": "activeAccess",
      "outputs": [
        {
          "internalType": "bool",
          "name": "",
          "type": "bool"
        }
      ],
      "stateMutability": "view",
      "type": "function",
      "constant": true
    },
    {
      "inputs": [
        {
          "internalType": "address",
          "name": "",
          "type": "address"
        },
        {
          "internalType": "uint256",
          "name": "",
          "type": "uint256"
        }
      ],
      "name": "patientRequests",
      "outputs": [
        {
          "internalType": "uint256",
          "name": "",
          "type": "uint256"
        }
      ],
      "stateMutability": "view",
      "type": "function",
      "constant": true
    },
    {
      "inputs": [
        {
          "internalType": "uint256",
          "name": "",
          "type": "uint256"
        }
      ],
      "name": "requests",
      "outputs": [
        {
          "internalType": "uint256",
          "name": "id",
          "type": "uint256"
        },
        {
          "internalType": "address",
          "name": "doctor",
          "type": "address"
        },
        {
          "internalType": "address",
          "name": "patient",
          "type": "address"
        },
        {
          "internalType": "string",
          "name": "reason",
          "type": "string"
        },
        {
          "internalType": "uint256",
          "name": "requestDate",
          "type": "uint256"
        },
        {
          "internalType": "uint256",
          "name": "duration",
          "type": "uint256"
        },
        {
          "internalType": "string",
          "name": "status",
          "type": "string"
        },
        {
          "internalType": "uint256",
          "name": "approvalDate",
          "type": "uint256"
        }
      ],
      "stateMutability": "view",
      "type": "function",
      "constant": true
    },
    {
      "inputs": [
        {
          "internalType": "address",
          "name": "patient",
          "type": "address"
        },
        {
          "internalType": "string",
          "name": "reason",
          "type": "string"
        },
        {
          "internalType": "uint256",
          "name": "duration",
          "type": "uint256"
        }
      ],
      "name": "createAccessRequest",
      "outputs": [
        {
          "internalType": "uint256",
          "name": "",
          "type": "uint256"
        }
      ],
      "stateMutability": "nonpayable",
      "type": "function"
    },
    {
      "inputs": [
        {
          "internalType": "uint256",
          "name": "requestId",
          "type": "uint256"
        },
        {
          "internalType": "bool",
          "name": "approved",
          "type": "bool"
        }
      ],
      "name": "respondToAccessRequest",
      "outputs": [],
      "stateMutability": "nonpayable",
      "type": "function"
    },
    {
      "inputs": [
        {
          "internalType": "address",
          "name": "doctor",
          "type": "address"
        },
        {
          "internalType": "address",
          "name": "patient",
          "type": "address"
        }
      ],
      "name": "checkAccess",
      "outputs": [
        {
          "internalType": "bool",
          "name": "",
          "type": "bool"
        }
      ],
      "stateMutability": "view",
      "type": "function",
      "constant": true
    },
    {
      "inputs": [
        {
          "internalType": "address",
          "name": "patient",
          "type": "address"
        }
      ],
      "name": "getAccessRequests",
      "outputs": [
        {
          "components": [
            {
              "internalType": "uint256",
              "name": "id",
              "type": "uint256"
            },
            {
              "internalType": "address",
              "name": "doctor",
              "type": "address"
            },
            {
              "internalType": "address",
              "name": "patient",
              "type": "address"
            },
            {
              "internalType": "string",
              "name": "reason",
              "type": "string"
            },
            {
              "internalType": "uint256",
              "name": "requestDate",
              "type": "uint256"
            },
            {
              "internalType": "uint256",
              "name": "duration",
              "type": "uint256"
            },
            {
              "internalType": "string",
              "name": "status",
              "type": "string"
            },
            {
              "internalType": "uint256",
              "name": "approvalDate",
              "type": "uint256"
            }
          ],
          "internalType": "struct AccessControl.AccessRequest[]",
          "name": "",
          "type": "tuple[]"
        }
      ],
      "stateMutability": "view",
      "type": "function",
      "constant": true
    },
    {
      "inputs": [
        {
          "internalType": "address",
          "name": "doctor",
          "type": "address"
        }
      ],
      "name": "revokeAccess",
      "outputs": [],
      "stateMutability": "nonpayable",
      "type": "function"
    }
  ],
  "bytecode": "0x60806040526000805534801561001457600080fd5b5061120c806100246000396000f3fe608060405234801561001057600080fd5b50600436106100935760003560e01c806381581c601161006657806381581c601461010757806381d12c581461011c57806385e6853114610143578063b741d60b14610156578063cf3743341461016957610093565b80630d203f1f146100985780633217bc72146100c15780633d7991cb146100d457806362e1f745146100f4575b600080fd5b6100ab6100a6366004610c39565b610189565b6040516100b8919061109f565b60405180910390f35b6100ab6100cf366004610d48565b61019b565b6100e76100e2366004610c5a565b6101cc565b6040516100b89190610f88565b6100e7610102366004610c5a565b6101ec565b61011a610115366004610d89565b610255565b005b61012f61012a366004610d71565b6104bd565b6040516100b89897969594939291906110a8565b61011a610151366004610c39565b61061c565b6100ab610164366004610c8c565b6106c4565b61017c610177366004610c39565b610857565b6040516100b89190610eaf565b60046020526000908152604090205481565b600260205281600052604060002081815481106101b757600080fd5b90600052602060002001600091509150505481565b600360209081526000928352604080842090915290825290205460ff1681565b6001600160a01b03808316600090815260036020908152604080832093851683529290529081205460ff166102235750600061024f565b6001600160a01b03831660009081526004602052604090205442111561024b5750600061024f565b5060015b92915050565b60008281526001602052604090206002015482906001600160a01b031633146102995760405162461bcd60e51b815260040161029090610fca565b60405180910390fd5b60008381526001602052604081206006810180549192916102b990611154565b9050116102d85760405162461bcd60e51b815260040161029090611001565b604080518082018252600781526670656e64696e6760c81b602090910152517fb4d829413f0d2c4d74c8ff63e02c9925119a56008208dd29db841c5f35ed3ad390610327906006840190610e14565b60405180910390201461034c5760405162461bcd60e51b815260040161029090610f93565b821561043f5760408051808201909152600880825267185c1c1c9bdd995960c21b6020909201918252610383916006840191610b32565b504260078201556001808201546001600160a01b0390811660009081526003602090815260408083206002870154909416835292905220805460ff1916909117905560058101546103d690610e10611135565b6103e0904261111d565b6001820180546001600160a01b0390811660009081526004602052604080822094909455600285015492549351928216939091169187917f97a8264d9d0b9e21370349f9b49be012a5d1e27829879df8ba166dba48f898c691a46104b7565b604080518082019091526008808252671c995a9958dd195960c21b6020909201918252610470916006840191610b32565b50600281015460018201546040516001600160a01b03928316929091169086907f675d0665e47d3038926572cb9031824da646e111df2a3092b2db3e46834fe30090600090a45b50505050565b600160208190526000918252604090912080549181015460028201546003830180546001600160a01b039384169492909316926104f990611154565b80601f016020809104026020016040519081016040528092919081815260200182805461052590611154565b80156105725780601f1061054757610100808354040283529160200191610572565b820191906000526020600020905b81548152906001019060200180831161055557829003601f168201915b50505050509080600401549080600501549080600601805461059390611154565b80601f01602080910402602001604051908101604052809291908181526020018280546105bf90611154565b801561060c5780601f106105e15761010080835404028352916020019161060c565b820191906000526020600020905b8154815290600101906020018083116105ef57829003601f168201915b5050505050908060070154905088565b6001600160a01b038116600090815260036020908152604080832033845290915290205460ff1661065f5760405162461bcd60e51b815260040161029090611068565b6001600160a01b038116600081815260036020908152604080832033808552908352818420805460ff191690558484526004909252808320839055519092917ff530cd931a5da630062430efba68949b7952f227e74638b206470b1e9a71bf0091a350565b60008082116106e55760405162461bcd60e51b815260040161029090611031565b6000805490806106f48361118f565b90915550506040805161010081018252600080548083523360208085019182526001600160a01b038a8116868801908152606087018b815242608089015260a088018b90528851808a018a52600781526670656e64696e6760c81b8186015260c089015260e0880187905294865260018084529790952086518155925196830180549782166001600160a01b0319988916179055935160028301805491909516961695909517909255518051929384936107b49260038501920190610b32565b506080820151600482015560a0820151600582015560c082015180516107e4916006840191602090910190610b32565b5060e091909101516007909101556001600160a01b03851660008181526002602090815260408083208354815460018101835591855292842001919091558154905133927fc0d9df9d6d8acee28356fcc24c0de4597104943515c4c0b12fb3d6b1ca74b0ee91a450506000549392505050565b6001600160a01b03811660009081526002602090815260408083208054825181850281018501909352808352606094938301828280156108b657602002820191906000526020600020905b8154815260200190600101908083116108a2575b505050505090506000815167ffffffffffffffff8111156108e757634e487b7160e01b600052604160045260246000fd5b60405190808252806020026020018201604052801561092057816020015b61090d610bb6565b8152602001906001900390816109055790505b50905060005b8251811015610b28576001600084838151811061095357634e487b7160e01b600052603260045260246000fd5b60209081029190910181015182528181019290925260409081016000208151610100810183528154815260018201546001600160a01b03908116948201949094526002820154909316918301919091526003810180546060840191906109b890611154565b80601f01602080910402602001604051908101604052809291908181526020018280546109e490611154565b8015610a315780601f10610a0657610100808354040283529160200191610a31565b820191906000526020600020905b815481529060010190602001808311610a1457829003601f168201915b505050505081526020016004820154815260200160058201548152602001600682018054610a5e90611154565b80601f0160208091040260200160405190810160405280929190818152602001828054610a8a90611154565b8015610ad75780601f10610aac57610100808354040283529160200191610ad7565b820191906000526020600020905b815481529060010190602001808311610aba57829003601f168201915b50505050508152602001600782015481525050828281518110610b0a57634e487b7160e01b600052603260045260246000fd5b60200260200101819052508080610b209061118f565b915050610926565b509150505b919050565b828054610b3e90611154565b90600052602060002090601f016020900481019282610b605760008555610ba6565b82601f10610b7957805160ff1916838001178555610ba6565b82800160010185558215610ba6579182015b82811115610ba6578251825591602001919060010190610b8b565b50610bb2929150610c0d565b5090565b6040518061010001604052806000815260200160006001600160a01b0316815260200160006001600160a01b0316815260200160608152602001600081526020016000815260200160608152602001600081525090565b5b80821115610bb25760008155600101610c0e565b80356001600160a01b0381168114610b2d57600080fd5b600060208284031215610c4a578081fd5b610c5382610c22565b9392505050565b60008060408385031215610c6c578081fd5b610c7583610c22565b9150610c8360208401610c22565b90509250929050565b600080600060608486031215610ca0578081fd5b610ca984610c22565b925060208085013567ffffffffffffffff80821115610cc6578384fd5b818701915087601f830112610cd9578384fd5b813581811115610ceb57610ceb6111c0565b604051601f8201601f1916810185018381118282101715610d0e57610d0e6111c0565b60405281815283820185018a1015610d24578586fd5b81858501868301379081019093019390935250929592945050506040919091013590565b60008060408385031215610d5a578182fd5b610d6383610c22565b946020939093013593505050565b600060208284031215610d82578081fd5b5035919050565b60008060408385031215610d9b578182fd5b8235915060208301358015158114610db1578182fd5b809150509250929050565b6001600160a01b03169052565b60008151808452815b81811015610dee57602081850181015186830182015201610dd2565b81811115610dff5782602083870101525b50601f01601f19169290920160200192915050565b8154600090819060028104600180831680610e3057607f831692505b6020808410821415610e5057634e487b7160e01b87526022600452602487fd5b818015610e645760018114610e7557610ea1565b60ff19861689528489019650610ea1565b610e7e8a611111565b885b86811015610e995781548b820152908501908301610e80565b505084890196505b509498975050505050505050565b60208082528251828201819052600091906040908185019080840286018301878501865b83811015610f7a57888303603f19018552815180518452878101516001600160a01b0316888501528681015161010090610f0f89870182610dbc565b506060808301518282880152610f2783880182610dc9565b92505050608080830151818701525060a080830151818701525060c08083015186830382880152610f588382610dc9565b60e0948501519790940196909652505094870194925090860190600101610ed3565b509098975050505050505050565b901515815260200190565b60208082526019908201527f5265717565737420616c72656164792070726f63657373656400000000000000604082015260600190565b60208082526018908201527f4f6e6c792070617469656e742063616e20726573706f6e640000000000000000604082015260600190565b60208082526016908201527514995c5d595cdd08191bd95cc81b9bdd08195e1a5cdd60521b604082015260600190565b60208082526019908201527f4475726174696f6e206d75737420626520706f73697469766500000000000000604082015260600190565b6020808252601a908201527f4e6f206163746976652061636365737320746f207265766f6b65000000000000604082015260600190565b90815260200190565b8881526001600160a01b03888116602083015287166040820152610100606082018190526000906110db83820189610dc9565b90508660808401528560a084015282810360c08401526110fb8186610dc9565b9150508260e08301529998505050505050505050565b60009081526020902090565b60008219821115611130576111306111aa565b500190565b600081600019048311821515161561114f5761114f6111aa565b500290565b60028104600182168061116857607f821691505b6020821081141561118957634e487b7160e01b600052602260045260246000fd5b50919050565b60006000198214156111a3576111a36111aa565b5060010190565b634e487b7160e01b600052601160045260246000fd5b634e487b7160e01b600052604160045260246000fdfea2646970667358221220222fb1875ea6b57d0ad9daecbf4330dcbccd9c5c3e3ed71b299a4d27aefe378864736f6c63430008000033",
  "immutableReferences": {},
  "source": "// SPDX-License-Identifier: MIT\npragma solidity ^0.8.0;\n\ncontract AccessControl {\n    struct AccessRequest {\n        uint256 id;\n        address doctor;\n        address patient;\n        string reason;\n        uint256 requestDate;\n        uint256 duration; // in hours\n        string status; // pending, approved, rejected, expired\n        uint256 approvalDate;\n    }\n\n    uint256 private requestCounter = 0;\n    mapping(uint256 => AccessRequest) public requests;\n    mapping(address => uint256[]) public patientRequests;\n    mapping(address => mapping(address => bool)) public activeAccess;\n    mapping(address => uint256) public accessExpiration;\n\n    event AccessRequested(uint256 indexed requestId, address indexed doctor, address indexed patient);\n    event AccessGranted(uint256 indexed requestId, address indexed doctor, address indexed patient);\n    event AccessDenied(uint256 indexed requestId, address indexed doctor, address indexed patient);\n    event AccessExpired(address indexed doctor, address indexed patient);\n\n    modifier onlyPatient(uint256 requestId) {\n        require(requests[requestId].patient == msg.sender, \"Only patient can respond\");\n        _;\n    }\n\n    function createAccessRequest(\n        address patient,\n        string memory reason,\n        uint256 duration\n    ) external returns (uint256) {\n        require(duration > 0, \"Duration must be positive\");\n        \n        requestCounter++;\n        \n        AccessRequest memory newRequest = AccessRequest({\n            id: requestCounter,\n            doctor: msg.sender,\n            patient: patient,\n            reason: reason,\n            requestDate: block.timestamp,\n            duration: duration,\n            status: \"pending\",\n            approvalDate: 0\n        });\n        \n        requests[requestCounter] = newRequest;\n        patientRequests[patient].push(requestCounter);\n        \n        emit AccessRequested(requestCounter, msg.sender, patient);\n        \n        return requestCounter;\n    }\n\n    function respondToAccessRequest(uint256 requestId, bool approved) \n        external \n        onlyPatient(requestId) \n    {\n        AccessRequest storage request = requests[requestId];\n        require(bytes(request.status).length > 0, \"Request does not exist\");\n        require(keccak256(bytes(request.status)) == keccak256(bytes(\"pending\")), \"Request already processed\");\n\n        if (approved) {\n            request.status = \"approved\";\n            request.approvalDate = block.timestamp;\n            activeAccess[request.doctor][request.patient] = true;\n            accessExpiration[request.doctor] = block.timestamp + (request.duration * 1 hours);\n            emit AccessGranted(requestId, request.doctor, request.patient);\n        } else {\n            request.status = \"rejected\";\n            emit AccessDenied(requestId, request.doctor, request.patient);\n        }\n    }\n\n    function checkAccess(address doctor, address patient) external view returns (bool) {\n        if (!activeAccess[doctor][patient]) {\n            return false;\n        }\n        \n        if (block.timestamp > accessExpiration[doctor]) {\n            return false;\n        }\n        \n        return true;\n    }\n\n    function getAccessRequests(address patient) external view returns (AccessRequest[] memory) {\n        uint256[] memory requestIds = patientRequests[patient];\n        AccessRequest[] memory result = new AccessRequest[](requestIds.length);\n        \n        for (uint256 i = 0; i < requestIds.length; i++) {\n            result[i] = requests[requestIds[i]];\n        }\n        \n        return result;\n    }\n\n    function revokeAccess(address doctor) external {\n        require(activeAccess[doctor][msg.sender], \"No active access to revoke\");\n        activeAccess[doctor][msg.sender] = false;\n        accessExpiration[doctor] = 0;\n        emit AccessExpired(doctor, msg.sender);\n    }\n}\n",
  "sourcePath": "C:\\Users\\antho\\CascadeProjects\\windsurf-project\\contracts\\AccessControl.sol",
  "compiler": {
    "name": "solc",
    "version": "0.8.0+commit.c7dfd78e.Emscripten.clang"
  },
  "schemaVersion": "3.4.16",
  "updatedAt": "2025-02-16T10:51:29.294Z",
  "networkType": "ethereum",
  "devdoc": {
    "kind": "dev",
    "methods": {},
    "version": 1
  },
  "userdoc": {
    "kind": "user",
    "methods": {},
    "version": 1
  }
}