{
  "contractName": "HealthRecord",
  "abi": [
    {
      "inputs": [],
      "stateMutability": "nonpayable",
      "type": "constructor"
    },
    {
      "anonymous": false,
      "inputs": [
        {
          "indexed": true,
          "internalType": "address",
          "name": "patient",
          "type": "address"
        },
        {
          "indexed": true,
          "internalType": "address",
          "name": "doctor",
          "type": "address"
        }
      ],
      "name": "AccessGranted",
      "type": "event"
    },
    {
      "anonymous": false,
      "inputs": [
        {
          "indexed": true,
          "internalType": "address",
          "name": "patient",
          "type": "address"
        },
        {
          "indexed": true,
          "internalType": "address",
          "name": "doctor",
          "type": "address"
        }
      ],
      "name": "AccessRequested",
      "type": "event"
    },
    {
      "anonymous": false,
      "inputs": [
        {
          "indexed": true,
          "internalType": "address",
          "name": "patient",
          "type": "address"
        },
        {
          "indexed": true,
          "internalType": "address",
          "name": "doctor",
          "type": "address"
        }
      ],
      "name": "AccessRevoked",
      "type": "event"
    },
    {
      "anonymous": false,
      "inputs": [
        {
          "indexed": true,
          "internalType": "address",
          "name": "patient",
          "type": "address"
        },
        {
          "indexed": false,
          "internalType": "string",
          "name": "name",
          "type": "string"
        },
        {
          "indexed": false,
          "internalType": "string",
          "name": "ipfsHash",
          "type": "string"
        },
        {
          "indexed": true,
          "internalType": "address",
          "name": "uploadedBy",
          "type": "address"
        }
      ],
      "name": "DocumentAdded",
      "type": "event"
    },
    {
      "anonymous": false,
      "inputs": [
        {
          "indexed": true,
          "internalType": "address",
          "name": "patient",
          "type": "address"
        },
        {
          "indexed": false,
          "internalType": "string",
          "name": "ipfsHash",
          "type": "string"
        },
        {
          "indexed": true,
          "internalType": "address",
          "name": "removedBy",
          "type": "address"
        }
      ],
      "name": "DocumentRemoved",
      "type": "event"
    },
    {
      "anonymous": false,
      "inputs": [
        {
          "indexed": true,
          "internalType": "address",
          "name": "userAddress",
          "type": "address"
        },
        {
          "indexed": false,
          "internalType": "string",
          "name": "name",
          "type": "string"
        }
      ],
      "name": "PatientRegistered",
      "type": "event"
    },
    {
      "anonymous": false,
      "inputs": [
        {
          "indexed": true,
          "internalType": "address",
          "name": "patient",
          "type": "address"
        },
        {
          "indexed": true,
          "internalType": "address",
          "name": "doctor",
          "type": "address"
        }
      ],
      "name": "RequestRejected",
      "type": "event"
    },
    {
      "anonymous": false,
      "inputs": [
        {
          "indexed": true,
          "internalType": "address",
          "name": "userAddress",
          "type": "address"
        },
        {
          "indexed": false,
          "internalType": "string",
          "name": "name",
          "type": "string"
        },
        {
          "indexed": false,
          "internalType": "enum HealthRecord.Role",
          "name": "role",
          "type": "uint8"
        }
      ],
      "name": "UserAdded",
      "type": "event"
    },
    {
      "anonymous": false,
      "inputs": [
        {
          "indexed": true,
          "internalType": "address",
          "name": "userAddress",
          "type": "address"
        }
      ],
      "name": "UserDeleted",
      "type": "event"
    },
    {
      "anonymous": false,
      "inputs": [
        {
          "indexed": true,
          "internalType": "address",
          "name": "userAddress",
          "type": "address"
        },
        {
          "indexed": false,
          "internalType": "string",
          "name": "name",
          "type": "string"
        },
        {
          "indexed": false,
          "internalType": "enum HealthRecord.Role",
          "name": "role",
          "type": "uint8"
        }
      ],
      "name": "UserUpdated",
      "type": "event"
    },
    {
      "inputs": [],
      "name": "DEFAULT_ADMIN",
      "outputs": [
        {
          "internalType": "address",
          "name": "",
          "type": "address"
        }
      ],
      "stateMutability": "view",
      "type": "function",
      "constant": true
    },
    {
      "inputs": [
        {
          "internalType": "address",
          "name": "",
          "type": "address"
        },
        {
          "internalType": "address",
          "name": "",
          "type": "address"
        }
      ],
      "name": "accessRequests",
      "outputs": [
        {
          "internalType": "bool",
          "name": "",
          "type": "bool"
        }
      ],
      "stateMutability": "view",
      "type": "function",
      "constant": true
    },
    {
      "inputs": [
        {
          "internalType": "address",
          "name": "",
          "type": "address"
        },
        {
          "internalType": "uint256",
          "name": "",
          "type": "uint256"
        }
      ],
      "name": "authorizedDoctorsList",
      "outputs": [
        {
          "internalType": "address",
          "name": "",
          "type": "address"
        }
      ],
      "stateMutability": "view",
      "type": "function",
      "constant": true
    },
    {
      "inputs": [
        {
          "internalType": "address",
          "name": "",
          "type": "address"
        },
        {
          "internalType": "address",
          "name": "",
          "type": "address"
        }
      ],
      "name": "doctorAccess",
      "outputs": [
        {
          "internalType": "bool",
          "name": "",
          "type": "bool"
        }
      ],
      "stateMutability": "view",
      "type": "function",
      "constant": true
    },
    {
      "inputs": [],
      "name": "owner",
      "outputs": [
        {
          "internalType": "address",
          "name": "",
          "type": "address"
        }
      ],
      "stateMutability": "view",
      "type": "function",
      "constant": true
    },
    {
      "inputs": [
        {
          "internalType": "address",
          "name": "",
          "type": "address"
        },
        {
          "internalType": "uint256",
          "name": "",
          "type": "uint256"
        }
      ],
      "name": "patientDocuments",
      "outputs": [
        {
          "internalType": "string",
          "name": "name",
          "type": "string"
        },
        {
          "internalType": "string",
          "name": "ipfsHash",
          "type": "string"
        },
        {
          "internalType": "uint256",
          "name": "timestamp",
          "type": "uint256"
        },
        {
          "internalType": "address",
          "name": "uploadedBy",
          "type": "address"
        }
      ],
      "stateMutability": "view",
      "type": "function",
      "constant": true
    },
    {
      "inputs": [
        {
          "internalType": "address",
          "name": "",
          "type": "address"
        },
        {
          "internalType": "uint256",
          "name": "",
          "type": "uint256"
        }
      ],
      "name": "pendingRequests",
      "outputs": [
        {
          "internalType": "address",
          "name": "",
          "type": "address"
        }
      ],
      "stateMutability": "view",
      "type": "function",
      "constant": true
    },
    {
      "inputs": [
        {
          "internalType": "address",
          "name": "",
          "type": "address"
        }
      ],
      "name": "users",
      "outputs": [
        {
          "internalType": "string",
          "name": "name",
          "type": "string"
        },
        {
          "internalType": "address",
          "name": "userAddress",
          "type": "address"
        },
        {
          "internalType": "enum HealthRecord.Role",
          "name": "role",
          "type": "uint8"
        },
        {
          "internalType": "bool",
          "name": "isActive",
          "type": "bool"
        },
        {
          "internalType": "string",
          "name": "ipfsHash",
          "type": "string"
        }
      ],
      "stateMutability": "view",
      "type": "function",
      "constant": true
    },
    {
      "inputs": [
        {
          "internalType": "address",
          "name": "_userAddress",
          "type": "address"
        },
        {
          "internalType": "string",
          "name": "_name",
          "type": "string"
        },
        {
          "internalType": "enum HealthRecord.Role",
          "name": "_role",
          "type": "uint8"
        },
        {
          "internalType": "string",
          "name": "_ipfsHash",
          "type": "string"
        }
      ],
      "name": "addUser",
      "outputs": [],
      "stateMutability": "nonpayable",
      "type": "function"
    },
    {
      "inputs": [
        {
          "internalType": "address",
          "name": "_userAddress",
          "type": "address"
        },
        {
          "internalType": "string",
          "name": "_name",
          "type": "string"
        },
        {
          "internalType": "string",
          "name": "_ipfsHash",
          "type": "string"
        }
      ],
      "name": "updateUser",
      "outputs": [],
      "stateMutability": "nonpayable",
      "type": "function"
    },
    {
      "inputs": [
        {
          "internalType": "address",
          "name": "_userAddress",
          "type": "address"
        }
      ],
      "name": "deleteUser",
      "outputs": [],
      "stateMutability": "nonpayable",
      "type": "function"
    },
    {
      "inputs": [
        {
          "internalType": "address",
          "name": "_patientAddress",
          "type": "address"
        }
      ],
      "name": "requestAccess",
      "outputs": [],
      "stateMutability": "nonpayable",
      "type": "function"
    },
    {
      "inputs": [
        {
          "internalType": "address",
          "name": "_patientAddress",
          "type": "address"
        }
      ],
      "name": "getPendingRequests",
      "outputs": [
        {
          "internalType": "address[]",
          "name": "",
          "type": "address[]"
        }
      ],
      "stateMutability": "view",
      "type": "function",
      "constant": true
    },
    {
      "inputs": [
        {
          "internalType": "address",
          "name": "_doctorAddress",
          "type": "address"
        }
      ],
      "name": "grantAccessToDoctor",
      "outputs": [],
      "stateMutability": "nonpayable",
      "type": "function"
    },
    {
      "inputs": [
        {
          "internalType": "address",
          "name": "_doctorAddress",
          "type": "address"
        }
      ],
      "name": "revokeAccessFromDoctor",
      "outputs": [],
      "stateMutability": "nonpayable",
      "type": "function"
    },
    {
      "inputs": [
        {
          "internalType": "address",
          "name": "_doctorAddress",
          "type": "address"
        }
      ],
      "name": "rejectAccessRequest",
      "outputs": [],
      "stateMutability": "nonpayable",
      "type": "function"
    },
    {
      "inputs": [
        {
          "internalType": "address",
          "name": "_patientAddress",
          "type": "address"
        },
        {
          "internalType": "string",
          "name": "_name",
          "type": "string"
        },
        {
          "internalType": "string",
          "name": "_ipfsHash",
          "type": "string"
        }
      ],
      "name": "addDocument",
      "outputs": [],
      "stateMutability": "nonpayable",
      "type": "function"
    },
    {
      "inputs": [
        {
          "internalType": "address",
          "name": "_patientAddress",
          "type": "address"
        }
      ],
      "name": "getDocuments",
      "outputs": [
        {
          "components": [
            {
              "internalType": "string",
              "name": "name",
              "type": "string"
            },
            {
              "internalType": "string",
              "name": "ipfsHash",
              "type": "string"
            },
            {
              "internalType": "uint256",
              "name": "timestamp",
              "type": "uint256"
            },
            {
              "internalType": "address",
              "name": "uploadedBy",
              "type": "address"
            }
          ],
          "internalType": "struct HealthRecord.Document[]",
          "name": "",
          "type": "tuple[]"
        }
      ],
      "stateMutability": "view",
      "type": "function",
      "constant": true
    },
    {
      "inputs": [
        {
          "internalType": "address",
          "name": "_patientAddress",
          "type": "address"
        },
        {
          "internalType": "string",
          "name": "_ipfsHash",
          "type": "string"
        }
      ],
      "name": "removeDocument",
      "outputs": [],
      "stateMutability": "nonpayable",
      "type": "function"
    },
    {
      "inputs": [
        {
          "internalType": "address",
          "name": "_userAddress",
          "type": "address"
        }
      ],
      "name": "getUserRole",
      "outputs": [
        {
          "internalType": "enum HealthRecord.Role",
          "name": "",
          "type": "uint8"
        }
      ],
      "stateMutability": "view",
      "type": "function",
      "constant": true
    },
    {
      "inputs": [
        {
          "internalType": "address",
          "name": "_patientAddress",
          "type": "address"
        },
        {
          "internalType": "address",
          "name": "_doctorAddress",
          "type": "address"
        }
      ],
      "name": "checkDoctorAccess",
      "outputs": [
        {
          "internalType": "bool",
          "name": "",
          "type": "bool"
        }
      ],
      "stateMutability": "view",
      "type": "function",
      "constant": true
    },
    {
      "inputs": [
        {
          "internalType": "address",
          "name": "_patientAddress",
          "type": "address"
        }
      ],
      "name": "getAuthorizedDoctors",
      "outputs": [
        {
          "internalType": "address[]",
          "name": "",
          "type": "address[]"
        }
      ],
      "stateMutability": "view",
      "type": "function",
      "constant": true
    },
    {
      "inputs": [],
      "name": "addDefaultAdmin",
      "outputs": [],
      "stateMutability": "nonpayable",
      "type": "function"
    },
    {
      "inputs": [
        {
          "internalType": "string",
          "name": "_name",
          "type": "string"
        },
        {
          "internalType": "string",
          "name": "_ipfsHash",
          "type": "string"
        }
      ],
      "name": "registerAsPatient",
      "outputs": [],
      "stateMutability": "nonpayable",
      "type": "function"
    }
  ],
  "bytecode": "0x60806040523480156200001157600080fd5b50600080546001600160a01b0319163390811790915573d9073e73717fca172f29b55a0368ae41de35d237141562000198576040805160e081018252600d60a082019081526c2232b330bab63a1020b236b4b760991b60c0830152815233602082015290810160028152600160208083018290526040805180830182526000808252948201523384529181529120825180519192620000b6928492909101906200019e565b5060208201516001820180546001600160a01b0319166001600160a01b03909216919091178082556040840151919060ff60a01b1916600160a01b8360028111156200011257634e487b7160e01b600052602160045260246000fd5b02179055506060820151600182018054911515600160a81b0260ff60a81b1990921691909117905560808201518051620001579160028401916020909101906200019e565b50506040513391507f8897d4c16f6b907647cc92f3b2f80418ac81581b8e74f9dda595d3910b44c862906200018f9060029062000244565b60405180910390a25b620002d1565b828054620001ac9062000294565b90600052602060002090601f016020900481019282620001d057600085556200021b565b82601f10620001eb57805160ff19168380011785556200021b565b828001600101855582156200021b579182015b828111156200021b578251825591602001919060010190620001fe565b50620002299291506200022d565b5090565b5b808211156200022957600081556001016200022e565b6040808252600d908201526c2232b330bab63a1020b236b4b760991b606082015260808101600383106200028857634e487b7160e01b600052602160045260246000fd5b82602083015292915050565b600281046001821680620002a957607f821691505b60208210811415620002cb57634e487b7160e01b600052602260045260246000fd5b50919050565b613b5980620002e16000396000f3fe608060405234801561001057600080fd5b50600436106101585760003560e01c8063a87430ba116100c3578063cbf8a64b1161007c578063cbf8a64b146102fd578063d55f52471461031d578063e68ddac814610330578063f05bfa7b14610338578063f06bf0191461034b578063fe127fcb1461035e57610158565b8063a87430ba1461025d578063ab4f232914610281578063b2d566c1146102a1578063b42e7b23146102b4578063b51c17b9146102d7578063b687e3c2146102ea57610158565b80635c60f226116101155780635c60f22614610201578063629e559d1461021457806365a410a3146102275780637c2e811a1461023a5780638da5cb5b1461024d5780639cdeba951461025557610158565b8063022cb2711461015d57806310e8b22d146101725780631c8e251c14610185578063278208511461019857806327f50a2d146101c1578063488ff1c8146101e1575b600080fd5b61017061016b366004612f0c565b610371565b005b610170610180366004613034565b610580565b610170610193366004612f0c565b610718565b6101ab6101a6366004612f0c565b610b5c565b6040516101b8919061333a565b60405180910390f35b6101d46101cf366004612f0c565b610b89565b6040516101b8919061328e565b6101f46101ef3660046130a5565b610de0565b6040516101b8919061322d565b61017061020f366004612f0c565b610e18565b610170610222366004612f0c565b611329565b610170610235366004612fab565b6115a0565b6101706102483660046130ce565b611ac1565b6101f4611cae565b6101f4611cbd565b61027061026b366004612f0c565b611cd5565b6040516101b895949392919061335b565b61029461028f366004612f2d565b611e2b565b6040516101b8919061332f565b6102946102af366004612f2d565b611e4b565b6102c76102c23660046130a5565b611e7b565b6040516101b89493929190613400565b6101f46102e53660046130a5565b611fe2565b6101706102f8366004613034565b611ffe565b61031061030b366004612f0c565b612234565b6040516101b89190613241565b61017061032b366004612f0c565b6122aa565b6101706125c9565b610310610346366004612f0c565b61280e565b610170610359366004612f5f565b612882565b61029461036c366004612f2d565b612ce7565b60013360009081526001602081905260409091200154600160a01b900460ff1660028111156103b057634e487b7160e01b600052602160045260246000fd5b146103d65760405162461bcd60e51b81526004016103cd90613989565b60405180910390fd5b3360009081526001602081905260409091200154600160a81b900460ff166104105760405162461bcd60e51b81526004016103cd906135af565b6001600160a01b038116600090815260016020819052604082200154600160a01b900460ff16600281111561045557634e487b7160e01b600052602160045260246000fd5b146104725760405162461bcd60e51b81526004016103cd90613578565b6001600160a01b038116600090815260026020908152604080832033845290915290205460ff16156104b65760405162461bcd60e51b81526004016103cd90613548565b6001600160a01b038116600090815260046020908152604080832033845290915290205460ff16156104fa5760405162461bcd60e51b81526004016103cd906138ac565b6001600160a01b038116600081815260046020908152604080832033808552908352818420805460ff191660019081179091558585526005845282852080549182018155855292842090920180546001600160a01b03191683179055519092917f40c7749b16fdfb0d550f20273a7767875059d647af94f5a9610c63ad73dcc79f91a350565b60023360009081526001602081905260409091200154600160a01b900460ff1660028111156105bf57634e487b7160e01b600052602160045260246000fd5b146105dc5760405162461bcd60e51b81526004016103cd9061391a565b3360009081526001602081905260409091200154600160a81b900460ff166106165760405162461bcd60e51b81526004016103cd906138e3565b6001600160a01b03831660009081526001602081905260409091200154600160a81b900460ff166106595760405162461bcd60e51b81526004016103cd9061395c565b6001600160a01b0383166000908152600160209081526040909120835161068292850190612d07565b506001600160a01b038316600090815260016020908152604090912082516106b292600290920191840190612d07565b506001600160a01b038316600081815260016020819052604091829020015490517fefdadc7a28168743850ed04edc06f2f26eca08d86d4e5877b355f1eecb3d2bca9161070b918691600160a01b900460ff16906133b0565b60405180910390a2505050565b33600090815260016020819052604082200154600160a01b900460ff16600281111561075457634e487b7160e01b600052602160045260246000fd5b146107715760405162461bcd60e51b81526004016103cd90613709565b3360009081526001602081905260409091200154600160a81b900460ff166107ab5760405162461bcd60e51b81526004016103cd906136a0565b60016001600160a01b03821660009081526001602081905260409091200154600160a01b900460ff1660028111156107f357634e487b7160e01b600052602160045260246000fd5b146108105760405162461bcd60e51b81526004016103cd906134e1565b6001600160a01b03811660009081526001602081905260409091200154600160a81b900460ff166108535760405162461bcd60e51b81526004016103cd90613a50565b3360009081526002602090815260408083206001600160a01b03851684529091528120805460ff19166001179055805b3360009081526003602052604090205481101561090b5733600090815260036020526040902080546001600160a01b0385169190839081106108d557634e487b7160e01b600052603260045260246000fd5b6000918252602090912001546001600160a01b031614156108f9576001915061090b565b8061090381613adc565b915050610883565b508061094a573360009081526003602090815260408220805460018101825590835291200180546001600160a01b0319166001600160a01b0384161790555b3360009081526004602090815260408083206001600160a01b038616845290915290205460ff1615610b22573360009081526004602090815260408083206001600160a01b03861684529091528120805460ff191690555b33600090815260056020526040902054811015610b205733600090815260056020526040902080546001600160a01b0385169190839081106109f457634e487b7160e01b600052603260045260246000fd5b6000918252602090912001546001600160a01b03161415610b0e573360009081526005602052604090208054610a2c90600190613a8a565b81548110610a4a57634e487b7160e01b600052603260045260246000fd5b60009182526020808320909101543383526005909152604090912080546001600160a01b039092169183908110610a9157634e487b7160e01b600052603260045260246000fd5b600091825260208083209190910180546001600160a01b0319166001600160a01b039490941693909317909255338152600590915260409020805480610ae757634e487b7160e01b600052603160045260246000fd5b600082815260209020810160001990810180546001600160a01b0319169055019055610b20565b80610b1881613adc565b9150506109a2565b505b6040516001600160a01b0383169033907f9f520b3bfc56d06f7065d10b4683b3f57ac8895d5026cd176dee95ce1454cb8d90600090a35050565b6001600160a01b03811660009081526001602081905260409091200154600160a01b900460ff165b919050565b606060013360009081526001602081905260409091200154600160a01b900460ff166002811115610bca57634e487b7160e01b600052602160045260246000fd5b148015610bfa57506001600160a01b038216600090815260026020908152604080832033845290915290205460ff165b80610c0d5750336001600160a01b038316145b610c295760405162461bcd60e51b81526004016103cd90613784565b6001600160a01b038216600090815260066020908152604080832080548251818502810185019093528083529193909284015b82821015610dd55783829060005260206000209060040201604051806080016040529081600082018054610c8f90613aa1565b80601f0160208091040260200160405190810160405280929190818152602001828054610cbb90613aa1565b8015610d085780601f10610cdd57610100808354040283529160200191610d08565b820191906000526020600020905b815481529060010190602001808311610ceb57829003601f168201915b50505050508152602001600182018054610d2190613aa1565b80601f0160208091040260200160405190810160405280929190818152602001828054610d4d90613aa1565b8015610d9a5780601f10610d6f57610100808354040283529160200191610d9a565b820191906000526020600020905b815481529060010190602001808311610d7d57829003601f168201915b505050918352505060028201546020808301919091526003909201546001600160a01b03166040909101529082526001929092019101610c5c565b505050509050919050565b60056020528160005260406000208181548110610dfc57600080fd5b6000918252602090912001546001600160a01b03169150829050565b60023360009081526001602081905260409091200154600160a01b900460ff166002811115610e5757634e487b7160e01b600052602160045260246000fd5b14610e745760405162461bcd60e51b81526004016103cd9061391a565b3360009081526001602081905260409091200154600160a81b900460ff16610eae5760405162461bcd60e51b81526004016103cd906138e3565b6001600160a01b03811660009081526001602081905260409091200154600160a81b900460ff16610ef15760405162461bcd60e51b81526004016103cd9061395c565b6001600160a01b03811673d9073e73717fca172f29b55a0368ae41de35d2371415610f2e5760405162461bcd60e51b81526004016103cd9061383e565b6001600160a01b038116600090815260016020819052604082200154600160a01b900460ff166002811115610f7357634e487b7160e01b600052602160045260246000fd5b14156111af576001600160a01b038116600090815260036020908152604080832080548251818502810185019093528083529192909190830182828015610fe357602002820191906000526020600020905b81546001600160a01b03168152600190910190602001808311610fc5575b5050505050905060005b815181101561109257600082828151811061101857634e487b7160e01b600052603260045260246000fd5b6020908102919091018101516001600160a01b03808716600081815260028552604080822093851680835293909552848120805460ff191690559351929450909290917f825c8be24eb0df19500f63e86c29e7d0d951e73056b889b891d85e40938d9b6e9190a3508061108a81613adc565b915050610fed565b506001600160a01b03821660009081526003602052604081206110b491612d8b565b60005b6001600160a01b038316600090815260056020526040902054811015611187576001600160a01b038316600090815260056020526040812080548390811061110f57634e487b7160e01b600052603260045260246000fd5b60009182526020808320909101546001600160a01b038781168085526004845260408086209290931680865291909352818420805460ff19169055905190935083927fbc07c2fb61df8e6f70aab44a06f5bfa00c1333a244a7ef055273445db3b26ed191a3508061117f81613adc565b9150506110b7565b506001600160a01b03821660009081526005602052604081206111a991612d8b565b506112d8565b60016001600160a01b03821660009081526001602081905260409091200154600160a01b900460ff1660028111156111f757634e487b7160e01b600052602160045260246000fd5b14156112d85760005b336000908152600360205260409020548110156112bf5733600090815260036020526040812080548390811061124657634e487b7160e01b600052603260045260246000fd5b60009182526020808320909101546001600160a01b0390811680845260028352604080852092881680865292909352828420805460ff1916905591519193509183917f825c8be24eb0df19500f63e86c29e7d0d951e73056b889b891d85e40938d9b6e9190a350806112b781613adc565b915050611200565b503360009081526003602052604081206112d891612d8b565b6001600160a01b0381166000818152600160208190526040808320909101805460ff60a81b19169055517f4bc56f1321288dfb5b416cb3a7fd188723979f9e866c91d88eccf7fca039d0399190a250565b33600090815260016020819052604082200154600160a01b900460ff16600281111561136557634e487b7160e01b600052602160045260246000fd5b146113825760405162461bcd60e51b81526004016103cd90613709565b3360009081526001602081905260409091200154600160a81b900460ff166113bc5760405162461bcd60e51b81526004016103cd906136a0565b3360009081526002602090815260408083206001600160a01b03851684529091528120805460ff191690555b336000908152600360205260409020548110156115665733600090815260036020526040902080546001600160a01b03841691908390811061143a57634e487b7160e01b600052603260045260246000fd5b6000918252602090912001546001600160a01b0316141561155457336000908152600360205260409020805461147290600190613a8a565b8154811061149057634e487b7160e01b600052603260045260246000fd5b60009182526020808320909101543383526003909152604090912080546001600160a01b0390921691839081106114d757634e487b7160e01b600052603260045260246000fd5b600091825260208083209190910180546001600160a01b0319166001600160a01b03949094169390931790925533815260039091526040902080548061152d57634e487b7160e01b600052603160045260246000fd5b600082815260209020810160001990810180546001600160a01b0319169055019055611566565b8061155e81613adc565b9150506113e8565b506040516001600160a01b0382169033907f825c8be24eb0df19500f63e86c29e7d0d951e73056b889b891d85e40938d9b6e90600090a350565b60023360009081526001602081905260409091200154600160a01b900460ff1660028111156115df57634e487b7160e01b600052602160045260246000fd5b146115fc5760405162461bcd60e51b81526004016103cd9061391a565b3360009081526001602081905260409091200154600160a81b900460ff166116365760405162461bcd60e51b81526004016103cd906138e3565b6001600160a01b03841661165c5760405162461bcd60e51b81526004016103cd90613447565b600082600281111561167e57634e487b7160e01b600052602160045260246000fd5b141561186b576001600160a01b0384166000908152600360209081526040808320805482518185028101850190935280835291929091908301828280156116ee57602002820191906000526020600020905b81546001600160a01b031681526001909101906020018083116116d0575b5050505050905060005b815181101561177b576001600160a01b0386166000908152600260205260408120835190919084908490811061173e57634e487b7160e01b600052603260045260246000fd5b6020908102919091018101516001600160a01b03168252810191909152604001600020805460ff191690558061177381613adc565b9150506116f8565b506001600160a01b038516600090815260036020526040812061179d91612d8b565b60005b6001600160a01b038616600090815260056020526040902054811015611843576001600160a01b03861660009081526004602090815260408083206005909252822080549192918490811061180557634e487b7160e01b600052603260045260246000fd5b60009182526020808320909101546001600160a01b031683528201929092526040019020805460ff191690558061183b81613adc565b9150506117a0565b506001600160a01b038516600090815260056020526040812061186591612d8b565b50611958565b600182600281111561188d57634e487b7160e01b600052602160045260246000fd5b14156119585760005b6001600160a01b038516600090815260036020526040902054811015611936576001600160a01b03851660009081526003602052604081208054839081106118ee57634e487b7160e01b600052603260045260246000fd5b60009182526020808320909101546001600160a01b039081168352600282526040808420918a16845291529020805460ff19169055508061192e81613adc565b915050611896565b506001600160a01b038416600090815260036020526040812061195891612d8b565b6040518060a00160405280848152602001856001600160a01b0316815260200183600281111561199857634e487b7160e01b600052602160045260246000fd5b81526001602080830182905260409283018590526001600160a01b03881660009081529181529190208251805191926119d692849290910190612d07565b5060208201516001820180546001600160a01b0319166001600160a01b03909216919091178082556040840151919060ff60a01b1916600160a01b836002811115611a3157634e487b7160e01b600052602160045260246000fd5b02179055506060820151600182018054911515600160a81b0260ff60a81b1990921691909117905560808201518051611a74916002840191602090910190612d07565b50905050836001600160a01b03167f8897d4c16f6b907647cc92f3b2f80418ac81581b8e74f9dda595d3910b44c8628484604051611ab39291906133b0565b60405180910390a250505050565b3360009081526001602081905260409091200154600160a81b900460ff1615611afc5760405162461bcd60e51b81526004016103cd90613875565b6000825111611b1d5760405162461bcd60e51b81526004016103cd90613470565b6000815111611b3e5760405162461bcd60e51b81526004016103cd9061374d565b6040805160a08101825283815233602082015290810160008152600160208083018290526040928301859052336000908152918152919020825180519192611b8b92849290910190612d07565b5060208201516001820180546001600160a01b0319166001600160a01b03909216919091178082556040840151919060ff60a01b1916600160a01b836002811115611be657634e487b7160e01b600052602160045260246000fd5b02179055506060820151600182018054911515600160a81b0260ff60a81b1990921691909117905560808201518051611c29916002840191602090910190612d07565b50506040513391507fc85b128388b9c331a2a5485dce4cd0f3db9f7c279d327ce95d6d39d6c94644c790611c5e908590613348565b60405180910390a2336001600160a01b03167f8897d4c16f6b907647cc92f3b2f80418ac81581b8e74f9dda595d3910b44c862836000604051611ca29291906133b0565b60405180910390a25050565b6000546001600160a01b031681565b73d9073e73717fca172f29b55a0368ae41de35d23781565b600160205260009081526040902080548190611cf090613aa1565b80601f0160208091040260200160405190810160405280929190818152602001828054611d1c90613aa1565b8015611d695780601f10611d3e57610100808354040283529160200191611d69565b820191906000526020600020905b815481529060010190602001808311611d4c57829003601f168201915b505050600184015460028501805494956001600160a01b0383169560ff600160a01b850481169650600160a81b909404909316935091611da890613aa1565b80601f0160208091040260200160405190810160405280929190818152602001828054611dd490613aa1565b8015611e215780601f10611df657610100808354040283529160200191611e21565b820191906000526020600020905b815481529060010190602001808311611e0457829003601f168201915b5050505050905085565b600460209081526000928352604080842090915290825290205460ff1681565b6001600160a01b0380831660009081526002602090815260408083209385168352929052205460ff165b92915050565b60066020528160005260406000208181548110611e9757600080fd5b906000526020600020906004020160009150915050806000018054611ebb90613aa1565b80601f0160208091040260200160405190810160405280929190818152602001828054611ee790613aa1565b8015611f345780601f10611f0957610100808354040283529160200191611f34565b820191906000526020600020905b815481529060010190602001808311611f1757829003601f168201915b505050505090806001018054611f4990613aa1565b80601f0160208091040260200160405190810160405280929190818152602001828054611f7590613aa1565b8015611fc25780601f10611f9757610100808354040283529160200191611fc2565b820191906000526020600020905b815481529060010190602001808311611fa557829003601f168201915b5050505060028301546003909301549192916001600160a01b0316905084565b60036020528160005260406000208181548110610dfc57600080fd5b60013360009081526001602081905260409091200154600160a01b900460ff16600281111561203d57634e487b7160e01b600052602160045260246000fd5b14801561206d57506001600160a01b038316600090815260026020908152604080832033845290915290205460ff165b806120805750336001600160a01b038416145b61209c5760405162461bcd60e51b81526004016103cd906137e1565b6001600160a01b038316600090815260016020819052604082200154600160a01b900460ff1660028111156120e157634e487b7160e01b600052602160045260246000fd5b146120fe5760405162461bcd60e51b81526004016103cd90613578565b6001600160a01b03831660009081526001602081905260409091200154600160a81b900460ff166121415760405162461bcd60e51b81526004016103cd906139f5565b60408051608081018252838152602080820184905242828401523360608301526001600160a01b03861660009081526006825292832080546001810182559084529281902082518051939485946004909102909201926121a692849290910190612d07565b5060208281015180516121bf9260018501920190612d07565b506040828101516002830155606090920151600390910180546001600160a01b0319166001600160a01b03928316179055905133918616907f58240ab501e006cc51446864acaf7f36ab139ca90883c9461b49f5171100046c9061222690879087906133d2565b60405180910390a350505050565b6001600160a01b03811660009081526003602090815260409182902080548351818402810184019094528084526060939283018282801561229e57602002820191906000526020600020905b81546001600160a01b03168152600190910190602001808311612280575b50505050509050919050565b33600090815260016020819052604082200154600160a01b900460ff1660028111156122e657634e487b7160e01b600052602160045260246000fd5b146123035760405162461bcd60e51b81526004016103cd90613709565b3360009081526001602081905260409091200154600160a81b900460ff1661233d5760405162461bcd60e51b81526004016103cd906136a0565b60016001600160a01b03821660009081526001602081905260409091200154600160a01b900460ff16600281111561238557634e487b7160e01b600052602160045260246000fd5b146123a25760405162461bcd60e51b81526004016103cd906134e1565b3360009081526004602090815260408083206001600160a01b038516845290915290205460ff166123e55760405162461bcd60e51b81526004016103cd9061349e565b3360009081526004602090815260408083206001600160a01b03851684529091528120805460ff191690555b3360009081526005602052604090205481101561258f5733600090815260056020526040902080546001600160a01b03841691908390811061246357634e487b7160e01b600052603260045260246000fd5b6000918252602090912001546001600160a01b0316141561257d57336000908152600560205260409020805461249b90600190613a8a565b815481106124b957634e487b7160e01b600052603260045260246000fd5b60009182526020808320909101543383526005909152604090912080546001600160a01b03909216918390811061250057634e487b7160e01b600052603260045260246000fd5b600091825260208083209190910180546001600160a01b0319166001600160a01b03949094169390931790925533815260059091526040902080548061255657634e487b7160e01b600052603160045260246000fd5b600082815260209020810160001990810180546001600160a01b031916905501905561258f565b8061258781613adc565b915050612411565b506040516001600160a01b0382169033907fbc07c2fb61df8e6f70aab44a06f5bfa00c1333a244a7ef055273445db3b26ed190600090a350565b3373d9073e73717fca172f29b55a0368ae41de35d237146125fc5760405162461bcd60e51b81526004016103cd906139c0565b73d9073e73717fca172f29b55a0368ae41de35d23760005260016020527f554aa36f2909d1c919fe498fd80877dff8128e08893ac60dd22b7cbe1452ae7c54600160a81b900460ff16156126625760405162461bcd60e51b81526004016103cd90613511565b6040805160e081018252600d60a082019081526c2232b330bab63a1020b236b4b760991b60c0830152815273d9073e73717fca172f29b55a0368ae41de35d237602082015290810160028152600160208083018290526040805180830182526000808252919094019390935273d9073e73717fca172f29b55a0368ae41de35d2379092528152815180517f554aa36f2909d1c919fe498fd80877dff8128e08893ac60dd22b7cbe1452ae7b9261271c928492910190612d07565b5060208201516001820180546001600160a01b0319166001600160a01b03909216919091178082556040840151919060ff60a01b1916600160a01b83600281111561277757634e487b7160e01b600052602160045260246000fd5b02179055506060820151600182018054911515600160a81b0260ff60a81b19909216919091179055608082015180516127ba916002840191602090910190612d07565b505060405173d9073e73717fca172f29b55a0368ae41de35d23791507f8897d4c16f6b907647cc92f3b2f80418ac81581b8e74f9dda595d3910b44c86290612804906002906136d7565b60405180910390a2565b6001600160a01b03811660009081526005602090815260409182902080548351818402810184019094528084526060939283018282801561229e576020028201919060005260206000209081546001600160a01b031681526001909101906020018083116122805750505050509050919050565b60013360009081526001602081905260409091200154600160a01b900460ff1660028111156128c157634e487b7160e01b600052602160045260246000fd5b1480156128f157506001600160a01b038216600090815260026020908152604080832033845290915290205460ff165b806129045750336001600160a01b038316145b6129205760405162461bcd60e51b81526004016103cd90613643565b6001600160a01b038216600090815260016020819052604082200154600160a01b900460ff16600281111561296557634e487b7160e01b600052602160045260246000fd5b146129825760405162461bcd60e51b81526004016103cd90613578565b6001600160a01b03821660009081526001602081905260409091200154600160a81b900460ff166129c55760405162461bcd60e51b81526004016103cd906139f5565b600080805b6001600160a01b038516600090815260066020526040902054811015612b0657838051906020012060066000876001600160a01b03166001600160a01b031681526020019081526020016000208281548110612a3657634e487b7160e01b600052603260045260246000fd5b9060005260206000209060040201600101604051612a549190613192565b60405180910390201415612af457336001600160a01b0386161480612acc57506001600160a01b0385166000908152600660205260409020805482908110612aac57634e487b7160e01b600052603260045260246000fd5b60009182526020909120600490910201600301546001600160a01b031633145b612ae85760405162461bcd60e51b81526004016103cd906135e6565b80915060019250612b06565b80612afe81613adc565b9150506129ca565b5081612b245760405162461bcd60e51b81526004016103cd90613a24565b6001600160a01b03841660009081526006602052604090208054612b4a90600190613a8a565b81548110612b6857634e487b7160e01b600052603260045260246000fd5b906000526020600020906004020160066000866001600160a01b03166001600160a01b031681526020019081526020016000208281548110612bba57634e487b7160e01b600052603260045260246000fd5b90600052602060002090600402016000820181600001908054612bdc90613aa1565b612be7929190612dac565b506001820181600101908054612bfc90613aa1565b612c07929190612dac565b5060028281015490820155600391820154910180546001600160a01b0319166001600160a01b0392831617905584166000908152600660205260409020805480612c6157634e487b7160e01b600052603160045260246000fd5b60008281526020812060001990920191600483020190612c818282612e27565b612c8f600183016000612e27565b506000600282015560030180546001600160a01b0319169055905560405133906001600160a01b038616907f559a6e1f8f5089a889812387081eeb3e789e3896ccb1a33de1c2314b115860f490612226908790613348565b600260209081526000928352604080842090915290825290205460ff1681565b828054612d1390613aa1565b90600052602060002090601f016020900481019282612d355760008555612d7b565b82601f10612d4e57805160ff1916838001178555612d7b565b82800160010185558215612d7b579182015b82811115612d7b578251825591602001919060010190612d60565b50612d87929150612e5f565b5090565b5080546000825590600052602060002090810190612da99190612e5f565b50565b828054612db890613aa1565b90600052602060002090601f016020900481019282612dda5760008555612d7b565b82601f10612deb5780548555612d7b565b82800160010185558215612d7b57600052602060002091601f016020900482015b82811115612d7b578254825591600101919060010190612e0c565b508054612e3390613aa1565b6000825580601f10612e455750612da9565b601f016020900490600052602060002090810190612da991905b5b80821115612d875760008155600101612e60565b80356001600160a01b0381168114610b8457600080fd5b600082601f830112612e9b578081fd5b813567ffffffffffffffff80821115612eb657612eb6613b0d565b604051601f8301601f191681016020018281118282101715612eda57612eda613b0d565b604052828152848301602001861015612ef1578384fd5b82602086016020830137918201602001929092529392505050565b600060208284031215612f1d578081fd5b612f2682612e74565b9392505050565b60008060408385031215612f3f578081fd5b612f4883612e74565b9150612f5660208401612e74565b90509250929050565b60008060408385031215612f71578182fd5b612f7a83612e74565b9150602083013567ffffffffffffffff811115612f95578182fd5b612fa185828601612e8b565b9150509250929050565b60008060008060808587031215612fc0578182fd5b612fc985612e74565b9350602085013567ffffffffffffffff80821115612fe5578384fd5b612ff188838901612e8b565b94506040870135915060038210613006578384fd5b9092506060860135908082111561301b578283fd5b5061302887828801612e8b565b91505092959194509250565b600080600060608486031215613048578283fd5b61305184612e74565b9250602084013567ffffffffffffffff8082111561306d578384fd5b61307987838801612e8b565b9350604086013591508082111561308e578283fd5b5061309b86828701612e8b565b9150509250925092565b600080604083850312156130b7578182fd5b6130c083612e74565b946020939093013593505050565b600080604083850312156130e0578182fd5b823567ffffffffffffffff808211156130f7578384fd5b61310386838701612e8b565b93506020850135915080821115613118578283fd5b50612fa185828601612e8b565b6003811061314357634e487b7160e01b600052602160045260246000fd5b9052565b60008151808452815b8181101561316c57602081850181015186830182015201613150565b8181111561317d5782602083870101525b50601f01601f19169290920160200192915050565b81546000908190600281046001808316806131ae57607f831692505b60208084108214156131ce57634e487b7160e01b87526022600452602487fd5b8180156131e257600181146131f35761321f565b60ff1986168952848901965061321f565b6131fc8a613a7e565b885b868110156132175781548b8201529085019083016131fe565b505084890196505b509498975050505050505050565b6001600160a01b0391909116815260200190565b6020808252825182820181905260009190848201906040850190845b818110156132825783516001600160a01b03168352928401929184019160010161325d565b50909695505050505050565b60208082528251828201819052600091906040908185019080840286018301878501865b8381101561332157603f198984030185528151608081518186526132d882870182613147565b915050888201518582038a8701526132f08282613147565b838a0151878b01526060938401516001600160a01b03169390960192909252505093860193908601906001016132b2565b509098975050505050505050565b901515815260200190565b60208101611e758284613125565b600060208252612f266020830184613147565b600060a0825261336e60a0830188613147565b6001600160a01b038716602084015261338a6040840187613125565b841515606084015282810360808401526133a48185613147565b98975050505050505050565b6000604082526133c36040830185613147565b9050612f266020830184613125565b6000604082526133e56040830185613147565b82810360208401526133f78185613147565b95945050505050565b6000608082526134136080830187613147565b82810360208401526134258187613147565b604084019590955250506001600160a01b039190911660609091015292915050565b6020808252600f908201526e496e76616c6964206164647265737360881b604082015260600190565b6020808252601490820152734e616d652063616e6e6f7420626520656d70747960601b604082015260600190565b60208082526023908201527f4e6f2070656e64696e6720726571756573742066726f6d207468697320646f636040820152623a37b960e91b606082015260800190565b602080825260169082015275496e76616c696420646f63746f72206164647265737360501b604082015260600190565b6020808252601c908201527f44656661756c742061646d696e20616c72656164792065786973747300000000604082015260600190565b6020808252601690820152751058d8d95cdcc8185b1c9958591e4819dc985b9d195960521b604082015260600190565b60208082526017908201527f496e76616c69642070617469656e742061646472657373000000000000000000604082015260600190565b6020808252601c908201527f446f63746f72206163636f756e74206973206e6f742061637469766500000000604082015260600190565b6020808252603d908201527f4f6e6c79207468652075706c6f6164696e6720646f63746f72206f722070617460408201527f69656e742063616e2072656d6f7665207468697320646f63756d656e74000000606082015260800190565b6020808252603b908201527f4f6e6c7920617574686f72697a656420646f63746f7273206f7220746865207060408201527f617469656e742063616e2072656d6f766520646f63756d656e74730000000000606082015260800190565b6020808252601d908201527f50617469656e74206163636f756e74206973206e6f7420616374697665000000604082015260600190565b6040808252600d908201526c2232b330bab63a1020b236b4b760991b606082015260808101611e756020830184613125565b60208082526024908201527f4f6e6c792070617469656e742063616e20706572666f726d20746869732061636040820152633a34b7b760e11b606082015260800190565b60208082526019908201527f4950465320686173682063616e6e6f7420626520656d70747900000000000000604082015260600190565b60208082526039908201527f4f6e6c7920617574686f72697a656420646f63746f7273206f7220746865207060408201527f617469656e742063616e207669657720646f63756d656e747300000000000000606082015260800190565b60208082526038908201527f4f6e6c7920617574686f72697a656420646f63746f7273206f7220746865207060408201527f617469656e742063616e2061646420646f63756d656e74730000000000000000606082015260800190565b6020808252601b908201527f43616e6e6f742064656c6574652064656661756c742061646d696e0000000000604082015260600190565b60208082526017908201527f5573657220616c72656164792072656769737465726564000000000000000000604082015260600190565b60208082526017908201527f5265717565737420616c72656164792070656e64696e67000000000000000000604082015260600190565b6020808252601b908201527f41646d696e206163636f756e74206973206e6f74206163746976650000000000604082015260600190565b60208082526022908201527f4f6e6c792061646d696e2063616e20706572666f726d2074686973206163746960408201526137b760f11b606082015260800190565b602080825260139082015272155cd95c88191bd95cc81b9bdd08195e1a5cdd606a1b604082015260600190565b6020808252601f908201527f4f6e6c7920646f63746f72732063616e20726571756573742061636365737300604082015260600190565b6020808252818101527f4f6e6c792064656661756c742061646d696e2063616e2063616c6c2074686973604082015260600190565b60208082526015908201527450617469656e74206973206e6f742061637469766560581b604082015260600190565b602080825260129082015271111bd8dd5b595b9d081b9bdd08199bdd5b9960721b604082015260600190565b602080825260149082015273446f63746f72206973206e6f742061637469766560601b604082015260600190565b60009081526020902090565b600082821015613a9c57613a9c613af7565b500390565b600281046001821680613ab557607f821691505b60208210811415613ad657634e487b7160e01b600052602260045260246000fd5b50919050565b6000600019821415613af057613af0613af7565b5060010190565b634e487b7160e01b600052601160045260246000fd5b634e487b7160e01b600052604160045260246000fdfea2646970667358221220f2de9997c5bcd653db704697456f53ba124da9eae1f9e347eb5b74cfcac4652464736f6c63430008000033",
  "immutableReferences": {},
  "source": "// SPDX-License-Identifier: MIT\npragma solidity ^0.8.0;\n\ncontract HealthRecord {\n    // Enum for user roles\n    enum Role { Patient, Doctor, Admin }\n    \n    // Struct for user details\n    struct User {\n        string name;\n        address userAddress;\n        Role role;\n        bool isActive;\n        string ipfsHash;\n    }\n\n    // Struct for document details\n    struct Document {\n        string name;\n        string ipfsHash;\n        uint256 timestamp;\n        address uploadedBy;\n    }\n    \n    // State variables\n    address public owner;\n    address public constant DEFAULT_ADMIN = 0xD9073E73717FCA172f29B55A0368ae41De35D237;\n    mapping(address => User) public users;\n    mapping(address => mapping(address => bool)) public doctorAccess;\n    mapping(address => address[]) public authorizedDoctorsList;\n    mapping(address => mapping(address => bool)) public accessRequests;\n    mapping(address => address[]) public pendingRequests;\n    \n    // Document management\n    mapping(address => Document[]) public patientDocuments;\n    \n    // Events\n    event UserAdded(address indexed userAddress, string name, Role role);\n    event UserUpdated(address indexed userAddress, string name, Role role);\n    event UserDeleted(address indexed userAddress);\n    event AccessGranted(address indexed patient, address indexed doctor);\n    event AccessRevoked(address indexed patient, address indexed doctor);\n    event AccessRequested(address indexed patient, address indexed doctor);\n    event RequestRejected(address indexed patient, address indexed doctor);\n    event DocumentAdded(address indexed patient, string name, string ipfsHash, address indexed uploadedBy);\n    event DocumentRemoved(address indexed patient, string ipfsHash, address indexed removedBy);\n    \n    // Modifiers\n    modifier onlyAdmin() {\n        require(users[msg.sender].role == Role.Admin, \"Only admin can perform this action\");\n        require(users[msg.sender].isActive, \"Admin account is not active\");\n        _;\n    }\n    \n    modifier onlyDoctor() {\n        require(users[msg.sender].role == Role.Doctor, \"Only doctor can perform this action\");\n        require(users[msg.sender].isActive, \"Doctor account is not active\");\n        _;\n    }\n    \n    modifier onlyPatient() {\n        require(users[msg.sender].role == Role.Patient, \"Only patient can perform this action\");\n        require(users[msg.sender].isActive, \"Patient account is not active\");\n        _;\n    }\n    \n    // Constructor\n    constructor() {\n        owner = msg.sender;\n        // Add contract deployer as admin if it's the default admin address\n        if (msg.sender == DEFAULT_ADMIN) {\n            users[msg.sender] = User(\"Default Admin\", msg.sender, Role.Admin, true, \"\");\n            emit UserAdded(msg.sender, \"Default Admin\", Role.Admin);\n        }\n    }\n    \n    // Admin functions\n    function addUser(\n        address _userAddress,\n        string memory _name,\n        Role _role,\n        string memory _ipfsHash\n    ) public onlyAdmin {\n        require(_userAddress != address(0), \"Invalid address\");\n        \n        // Always clean up existing data, whether the user exists or not\n        if (_role == Role.Patient) {\n            // Get all authorized doctors (if any)\n            address[] memory doctors = authorizedDoctorsList[_userAddress];\n            \n            // Clear all doctor access mappings\n            for (uint i = 0; i < doctors.length; i++) {\n                delete doctorAccess[_userAddress][doctors[i]];\n            }\n            \n            // Clear authorized doctors list\n            delete authorizedDoctorsList[_userAddress];\n            \n            // Clear pending requests\n            for (uint i = 0; i < pendingRequests[_userAddress].length; i++) {\n                delete accessRequests[_userAddress][pendingRequests[_userAddress][i]];\n            }\n            delete pendingRequests[_userAddress];\n        } else if (_role == Role.Doctor) {\n            // Clean up any existing doctor access data\n            for (uint i = 0; i < authorizedDoctorsList[_userAddress].length; i++) {\n                address patient = authorizedDoctorsList[_userAddress][i];\n                delete doctorAccess[patient][_userAddress];\n            }\n            delete authorizedDoctorsList[_userAddress];\n        }\n        \n        // Create or update user\n        users[_userAddress] = User(_name, _userAddress, _role, true, _ipfsHash);\n        emit UserAdded(_userAddress, _name, _role);\n    }\n    \n    function updateUser(\n        address _userAddress,\n        string memory _name,\n        string memory _ipfsHash\n    ) public onlyAdmin {\n        require(users[_userAddress].isActive, \"User does not exist\");\n        \n        users[_userAddress].name = _name;\n        users[_userAddress].ipfsHash = _ipfsHash;\n        emit UserUpdated(_userAddress, _name, users[_userAddress].role);\n    }\n    \n    function deleteUser(address _userAddress) public onlyAdmin {\n        require(users[_userAddress].isActive, \"User does not exist\");\n        require(_userAddress != DEFAULT_ADMIN, \"Cannot delete default admin\");\n        \n        // Clean up associated data based on role\n        if (users[_userAddress].role == Role.Patient) {\n            // Get list of authorized doctors\n            address[] memory authorizedDoctors = authorizedDoctorsList[_userAddress];\n            \n            // Clear all doctor access mappings explicitly\n            for (uint i = 0; i < authorizedDoctors.length; i++) {\n                address doctor = authorizedDoctors[i];\n                delete doctorAccess[_userAddress][doctor];\n                emit AccessRevoked(_userAddress, doctor);\n            }\n            \n            // Clear authorized doctors list\n            delete authorizedDoctorsList[_userAddress];\n            \n            // Clear pending requests and access requests\n            for (uint i = 0; i < pendingRequests[_userAddress].length; i++) {\n                address doctor = pendingRequests[_userAddress][i];\n                delete accessRequests[_userAddress][doctor];\n                emit RequestRejected(_userAddress, doctor);\n            }\n            delete pendingRequests[_userAddress];\n        } else if (users[_userAddress].role == Role.Doctor) {\n            // If deleting a doctor, remove their access to all patients\n            // Get all patients this doctor has access to\n            for (uint i = 0; i < authorizedDoctorsList[msg.sender].length; i++) {\n                address patient = authorizedDoctorsList[msg.sender][i];\n                delete doctorAccess[patient][_userAddress];\n                emit AccessRevoked(patient, _userAddress);\n            }\n            delete authorizedDoctorsList[msg.sender];\n        }\n        \n        // Mark user as inactive\n        users[_userAddress].isActive = false;\n        emit UserDeleted(_userAddress);\n    }\n    \n\n    function requestAccess(address _patientAddress) public {\n        require(users[msg.sender].role == Role.Doctor, \"Only doctors can request access\");\n        require(users[msg.sender].isActive, \"Doctor account is not active\");\n        require(users[_patientAddress].role == Role.Patient, \"Invalid patient address\");\n        require(!doctorAccess[_patientAddress][msg.sender], \"Access already granted\");\n        require(!accessRequests[_patientAddress][msg.sender], \"Request already pending\");\n        \n        accessRequests[_patientAddress][msg.sender] = true;\n        pendingRequests[_patientAddress].push(msg.sender);\n        emit AccessRequested(_patientAddress, msg.sender);\n    }\n\n    function getPendingRequests(address _patientAddress) public view returns (address[] memory) {\n        return pendingRequests[_patientAddress];\n    }\n    \n    // Patient functions\n    function grantAccessToDoctor(address _doctorAddress) public onlyPatient {\n        require(users[_doctorAddress].role == Role.Doctor, \"Invalid doctor address\");\n        require(users[_doctorAddress].isActive, \"Doctor is not active\");\n        \n        doctorAccess[msg.sender][_doctorAddress] = true;\n        // Add doctor to authorized list if not already present\n        bool doctorExists = false;\n        for(uint i = 0; i < authorizedDoctorsList[msg.sender].length; i++) {\n            if(authorizedDoctorsList[msg.sender][i] == _doctorAddress) {\n                doctorExists = true;\n                break;\n            }\n        }\n        if(!doctorExists) {\n            authorizedDoctorsList[msg.sender].push(_doctorAddress);\n        }\n        \n        // Remove from pending requests if exists\n        if (accessRequests[msg.sender][_doctorAddress]) {\n            accessRequests[msg.sender][_doctorAddress] = false;\n            for(uint i = 0; i < pendingRequests[msg.sender].length; i++) {\n                if(pendingRequests[msg.sender][i] == _doctorAddress) {\n                    pendingRequests[msg.sender][i] = pendingRequests[msg.sender][pendingRequests[msg.sender].length - 1];\n                    pendingRequests[msg.sender].pop();\n                    break;\n                }\n            }\n        }\n        \n        emit AccessGranted(msg.sender, _doctorAddress);\n    }\n    \n    function revokeAccessFromDoctor(address _doctorAddress) public onlyPatient {\n        doctorAccess[msg.sender][_doctorAddress] = false;\n        // Remove doctor from authorized list\n        for(uint i = 0; i < authorizedDoctorsList[msg.sender].length; i++) {\n            if(authorizedDoctorsList[msg.sender][i] == _doctorAddress) {\n                // Move the last element to this position and pop the last element\n                authorizedDoctorsList[msg.sender][i] = authorizedDoctorsList[msg.sender][authorizedDoctorsList[msg.sender].length - 1];\n                authorizedDoctorsList[msg.sender].pop();\n                break;\n            }\n        }\n        emit AccessRevoked(msg.sender, _doctorAddress);\n    }\n\n    function rejectAccessRequest(address _doctorAddress) public onlyPatient {\n        require(users[_doctorAddress].role == Role.Doctor, \"Invalid doctor address\");\n        require(accessRequests[msg.sender][_doctorAddress], \"No pending request from this doctor\");\n\n        accessRequests[msg.sender][_doctorAddress] = false;\n\n        for(uint i = 0; i < pendingRequests[msg.sender].length; i++) {\n            if(pendingRequests[msg.sender][i] == _doctorAddress) {\n                pendingRequests[msg.sender][i] = pendingRequests[msg.sender][pendingRequests[msg.sender].length - 1];\n                pendingRequests[msg.sender].pop();\n                break;\n            }\n        }\n\n        emit RequestRejected(msg.sender, _doctorAddress);\n    }\n\n\n    function addDocument(\n        address _patientAddress,\n        string memory _name,\n        string memory _ipfsHash\n    ) public {\n        require(\n            users[msg.sender].role == Role.Doctor && doctorAccess[_patientAddress][msg.sender] ||\n            msg.sender == _patientAddress,\n            \"Only authorized doctors or the patient can add documents\"\n        );\n        require(users[_patientAddress].role == Role.Patient, \"Invalid patient address\");\n        require(users[_patientAddress].isActive, \"Patient is not active\");\n\n        Document memory newDoc = Document({\n            name: _name,\n            ipfsHash: _ipfsHash,\n            timestamp: block.timestamp,\n            uploadedBy: msg.sender\n        });\n\n        patientDocuments[_patientAddress].push(newDoc);\n        emit DocumentAdded(_patientAddress, _name, _ipfsHash, msg.sender);\n    }\n\n    function getDocuments(address _patientAddress) public view returns (Document[] memory) {\n        require(\n            users[msg.sender].role == Role.Doctor && doctorAccess[_patientAddress][msg.sender] ||\n            msg.sender == _patientAddress,\n            \"Only authorized doctors or the patient can view documents\"\n        );\n        return patientDocuments[_patientAddress];\n    }\n\n    function removeDocument(address _patientAddress, string memory _ipfsHash) public {\n        require(\n            users[msg.sender].role == Role.Doctor && doctorAccess[_patientAddress][msg.sender] ||\n            msg.sender == _patientAddress,\n            \"Only authorized doctors or the patient can remove documents\"\n        );\n        require(users[_patientAddress].role == Role.Patient, \"Invalid patient address\");\n        require(users[_patientAddress].isActive, \"Patient is not active\");\n\n        bool found = false;\n        uint indexToRemove;\n\n        // Find the document to remove\n        for (uint i = 0; i < patientDocuments[_patientAddress].length; i++) {\n            if (keccak256(bytes(patientDocuments[_patientAddress][i].ipfsHash)) == keccak256(bytes(_ipfsHash))) {\n                // Only allow removal if sender is patient or is the doctor who uploaded it\n                require(\n                    msg.sender == _patientAddress || \n                    msg.sender == patientDocuments[_patientAddress][i].uploadedBy,\n                    \"Only the uploading doctor or patient can remove this document\"\n                );\n                indexToRemove = i;\n                found = true;\n                break;\n            }\n        }\n\n        require(found, \"Document not found\");\n\n        // Remove document by moving the last element to the removed position\n        patientDocuments[_patientAddress][indexToRemove] = patientDocuments[_patientAddress][patientDocuments[_patientAddress].length - 1];\n        patientDocuments[_patientAddress].pop();\n\n        emit DocumentRemoved(_patientAddress, _ipfsHash, msg.sender);\n    }\n\n    function getUserRole(address _userAddress) public view returns (Role) {\n        return users[_userAddress].role;\n    }\n    \n    function checkDoctorAccess(address _patientAddress, address _doctorAddress) \n        public \n        view \n        returns (bool) \n    {\n        return doctorAccess[_patientAddress][_doctorAddress];\n    }\n    \n    function getAuthorizedDoctors(address _patientAddress) public view returns (address[] memory) {\n        return authorizedDoctorsList[_patientAddress];\n    }\n\n    function addDefaultAdmin() public {\n        require(msg.sender == DEFAULT_ADMIN, \"Only default admin can call this\");\n        require(!users[DEFAULT_ADMIN].isActive, \"Default admin already exists\");\n        \n        users[DEFAULT_ADMIN] = User(\"Default Admin\", DEFAULT_ADMIN, Role.Admin, true, \"\");\n        emit UserAdded(DEFAULT_ADMIN, \"Default Admin\", Role.Admin);\n    }\n\nevent PatientRegistered(address indexed userAddress, string name);\n\nfunction registerAsPatient(string memory _name, string memory _ipfsHash) public {\n    require(!users[msg.sender].isActive, \"User already registered\");\n    require(bytes(_name).length > 0, \"Name cannot be empty\");\n    require(bytes(_ipfsHash).length > 0, \"IPFS hash cannot be empty\");\n    \n    users[msg.sender] = User({\n        name: _name,\n        userAddress: msg.sender,\n        role: Role.Patient,\n        isActive: true,\n        ipfsHash: _ipfsHash\n    });\n\n    emit PatientRegistered(msg.sender, _name);\n    emit UserAdded(msg.sender, _name, Role.Patient);\n}\n}\n",
  "sourcePath": "C:\\Users\\antho\\CascadeProjects\\windsurf-project\\contracts\\HealthRecord.sol",
  "compiler": {
    "name": "solc",
    "version": "0.8.0+commit.c7dfd78e.Emscripten.clang"
  },
  "schemaVersion": "3.4.16",
  "updatedAt": "2025-02-16T10:51:29.273Z",
  "networkType": "ethereum",
  "devdoc": {
    "kind": "dev",
    "methods": {},
    "version": 1
  },
  "userdoc": {
    "kind": "user",
    "methods": {},
    "version": 1
  }
}